{
  "contractName": "Creation",
  "abi": [
    {
      "constant": true,
      "inputs": [
        {
          "name": "",
          "type": "uint256"
        }
      ],
      "name": "herotoowner",
      "outputs": [
        {
          "name": "",
          "type": "address"
        }
      ],
      "payable": false,
      "stateMutability": "view",
      "type": "function"
    },
    {
      "constant": true,
      "inputs": [
        {
          "name": "",
          "type": "uint256"
        }
      ],
      "name": "enemies",
      "outputs": [
        {
          "name": "name",
          "type": "string"
        },
        {
          "name": "life",
          "type": "int256"
        },
        {
          "name": "lvl",
          "type": "int256"
        },
        {
          "name": "xp",
          "type": "int256"
        },
        {
          "name": "attack",
          "type": "int256"
        },
        {
          "name": "mondmg",
          "type": "int256"
        }
      ],
      "payable": false,
      "stateMutability": "view",
      "type": "function"
    },
    {
      "constant": true,
      "inputs": [
        {
          "name": "",
          "type": "address"
        },
        {
          "name": "",
          "type": "address"
        }
      ],
      "name": "allowed",
      "outputs": [
        {
          "name": "",
          "type": "uint256"
        }
      ],
      "payable": false,
      "stateMutability": "view",
      "type": "function"
    },
    {
      "constant": true,
      "inputs": [
        {
          "name": "",
          "type": "uint256"
        }
      ],
      "name": "monstertoowner",
      "outputs": [
        {
          "name": "",
          "type": "address"
        }
      ],
      "payable": false,
      "stateMutability": "view",
      "type": "function"
    },
    {
      "constant": true,
      "inputs": [
        {
          "name": "",
          "type": "uint256"
        }
      ],
      "name": "heroes",
      "outputs": [
        {
          "name": "name",
          "type": "string"
        },
        {
          "name": "life",
          "type": "int256"
        },
        {
          "name": "lvl",
          "type": "int256"
        },
        {
          "name": "xp",
          "type": "int256"
        },
        {
          "name": "attack",
          "type": "int256"
        },
        {
          "name": "winCount",
          "type": "int256"
        },
        {
          "name": "lossCount",
          "type": "int256"
        },
        {
          "name": "herodmg",
          "type": "int256"
        }
      ],
      "payable": false,
      "stateMutability": "view",
      "type": "function"
    },
    {
      "constant": true,
      "inputs": [
        {
          "name": "",
          "type": "uint256"
        }
      ],
      "name": "itemtoowner",
      "outputs": [
        {
          "name": "",
          "type": "address"
        }
      ],
      "payable": false,
      "stateMutability": "view",
      "type": "function"
    },
    {
      "constant": true,
      "inputs": [],
      "name": "monsterCount",
      "outputs": [
        {
          "name": "",
          "type": "uint256"
        }
      ],
      "payable": false,
      "stateMutability": "view",
      "type": "function"
    },
    {
      "constant": true,
      "inputs": [
        {
          "name": "",
          "type": "uint256"
        }
      ],
      "name": "items",
      "outputs": [
        {
          "name": "uid",
          "type": "int256"
        },
        {
          "name": "sellable",
          "type": "int256"
        },
        {
          "name": "price",
          "type": "uint256"
        }
      ],
      "payable": false,
      "stateMutability": "view",
      "type": "function"
    },
    {
      "constant": true,
      "inputs": [
        {
          "name": "",
          "type": "address"
        }
      ],
      "name": "itemCount",
      "outputs": [
        {
          "name": "",
          "type": "uint256"
        }
      ],
      "payable": false,
      "stateMutability": "view",
      "type": "function"
    },
    {
      "constant": true,
      "inputs": [
        {
          "name": "",
          "type": "address"
        }
      ],
      "name": "heroCount",
      "outputs": [
        {
          "name": "",
          "type": "uint256"
        }
      ],
      "payable": false,
      "stateMutability": "view",
      "type": "function"
    },
    {
      "anonymous": false,
      "inputs": [
        {
          "indexed": true,
          "name": "_from",
          "type": "address"
        },
        {
          "indexed": true,
          "name": "_to",
          "type": "address"
        },
        {
          "indexed": true,
          "name": "_tokenId",
          "type": "uint256"
        }
      ],
      "name": "Transfer",
      "type": "event"
    },
    {
      "anonymous": false,
      "inputs": [
        {
          "indexed": false,
          "name": "heroId",
          "type": "uint256"
        },
        {
          "indexed": false,
          "name": "name",
          "type": "string"
        }
      ],
      "name": "NewHero",
      "type": "event"
    },
    {
      "anonymous": false,
      "inputs": [
        {
          "indexed": true,
          "name": "_owner",
          "type": "address"
        },
        {
          "indexed": true,
          "name": "_approved",
          "type": "address"
        },
        {
          "indexed": false,
          "name": "_tokenId",
          "type": "uint256"
        }
      ],
      "name": "Approval",
      "type": "event"
    },
    {
      "constant": false,
      "inputs": [
        {
          "name": "_name",
          "type": "string"
        }
      ],
      "name": "createhero",
      "outputs": [],
      "payable": false,
      "stateMutability": "nonpayable",
      "type": "function"
    },
    {
      "constant": false,
      "inputs": [
        {
          "name": "_herolvl",
          "type": "int256"
        }
      ],
      "name": "enemyScrab",
      "outputs": [],
      "payable": false,
      "stateMutability": "nonpayable",
      "type": "function"
    },
    {
      "constant": false,
      "inputs": [
        {
          "name": "_herolvl",
          "type": "int256"
        }
      ],
      "name": "enemyBcrab",
      "outputs": [],
      "payable": false,
      "stateMutability": "nonpayable",
      "type": "function"
    },
    {
      "constant": false,
      "inputs": [],
      "name": "createitem",
      "outputs": [],
      "payable": false,
      "stateMutability": "nonpayable",
      "type": "function"
    },
    {
      "constant": true,
      "inputs": [
        {
          "name": "_owner",
          "type": "address"
        }
      ],
      "name": "getitemsByOwner",
      "outputs": [
        {
          "name": "",
          "type": "uint256[]"
        }
      ],
      "payable": false,
      "stateMutability": "view",
      "type": "function"
    },
    {
      "constant": false,
      "inputs": [
        {
          "name": "_itemid",
          "type": "uint256"
        },
        {
          "name": "_price",
          "type": "uint256"
        }
      ],
      "name": "tosell",
      "outputs": [],
      "payable": false,
      "stateMutability": "nonpayable",
      "type": "function"
    },
    {
      "constant": false,
      "inputs": [
        {
          "name": "_itemid",
          "type": "uint256"
        }
      ],
      "name": "cancelsell",
      "outputs": [],
      "payable": false,
      "stateMutability": "nonpayable",
      "type": "function"
    },
    {
      "constant": false,
      "inputs": [
        {
          "name": "_from",
          "type": "address"
        },
        {
          "name": "_to",
          "type": "address"
        },
        {
          "name": "_tokenId",
          "type": "uint256"
        }
      ],
      "name": "transferFrom",
      "outputs": [],
      "payable": true,
      "stateMutability": "payable",
      "type": "function"
    },
    {
      "constant": true,
      "inputs": [],
      "name": "retarrray",
      "outputs": [
        {
          "name": "",
          "type": "uint256[]"
        }
      ],
      "payable": false,
      "stateMutability": "view",
      "type": "function"
    },
    {
      "constant": true,
      "inputs": [
        {
          "name": "owner",
          "type": "address"
        }
      ],
      "name": "getHerosByOwner",
      "outputs": [
        {
          "name": "",
          "type": "uint256"
        }
      ],
      "payable": false,
      "stateMutability": "view",
      "type": "function"
    },
    {
      "constant": true,
      "inputs": [
        {
          "name": "owner",
          "type": "address"
        }
      ],
      "name": "getmonstersByOwner",
      "outputs": [
        {
          "name": "",
          "type": "uint256"
        }
      ],
      "payable": false,
      "stateMutability": "view",
      "type": "function"
    },
    {
      "constant": true,
      "inputs": [
        {
          "name": "_num",
          "type": "uint256"
        }
      ],
      "name": "randNum2",
      "outputs": [
        {
          "name": "",
          "type": "uint256"
        }
      ],
      "payable": false,
      "stateMutability": "view",
      "type": "function"
    },
    {
      "constant": false,
      "inputs": [
        {
          "name": "_heroid",
          "type": "uint256"
        },
        {
          "name": "_monsterid",
          "type": "uint256"
        },
        {
          "name": "_num",
          "type": "int256"
        }
      ],
      "name": "attack_hero",
      "outputs": [],
      "payable": false,
      "stateMutability": "nonpayable",
      "type": "function"
    },
    {
      "constant": false,
      "inputs": [
        {
          "name": "_heroid",
          "type": "uint256"
        }
      ],
      "name": "resurrection",
      "outputs": [],
      "payable": false,
      "stateMutability": "nonpayable",
      "type": "function"
    },
    {
      "constant": true,
      "inputs": [
        {
          "name": "_id",
          "type": "uint256"
        }
      ],
      "name": "gethero",
      "outputs": [
        {
          "name": "name",
          "type": "string"
        },
        {
          "name": "life",
          "type": "int256"
        },
        {
          "name": "lvl",
          "type": "int256"
        },
        {
          "name": "xp",
          "type": "int256"
        },
        {
          "name": "attack",
          "type": "int256"
        },
        {
          "name": "winCount",
          "type": "int256"
        },
        {
          "name": "lossCount",
          "type": "int256"
        },
        {
          "name": "herodmg",
          "type": "int256"
        }
      ],
      "payable": false,
      "stateMutability": "view",
      "type": "function"
    },
    {
      "constant": false,
      "inputs": [
        {
          "name": "_owner",
          "type": "address"
        }
      ],
      "name": "balanceOf",
      "outputs": [
        {
          "name": "",
          "type": "uint256"
        }
      ],
      "payable": false,
      "stateMutability": "nonpayable",
      "type": "function"
    },
    {
      "constant": false,
      "inputs": [
        {
          "name": "_tokenId",
          "type": "uint256"
        }
      ],
      "name": "ownerOf",
      "outputs": [
        {
          "name": "",
          "type": "address"
        }
      ],
      "payable": false,
      "stateMutability": "nonpayable",
      "type": "function"
    },
    {
      "constant": false,
      "inputs": [
        {
          "name": "_to",
          "type": "address"
        },
        {
          "name": "_tokenId",
          "type": "uint256"
        }
      ],
      "name": "approve",
      "outputs": [],
      "payable": false,
      "stateMutability": "nonpayable",
      "type": "function"
    }
  ],
  "bytecode": "0x608060405260146000556000600b5534801561001a57600080fd5b506124da8061002a6000396000f30060806040526004361061016a576000357c0100000000000000000000000000000000000000000000000000000000900463ffffffff168063095ea7b31461016f5780631e19fde3146101bc57806323b872dd146101e95780632b2e0f021461024957806340e7a6ce146102e15780634189f72d146103225780634584bc771461038f57806354341980146103bc5780635c6581651461048557806360eb73c8146104fc5780636352211e146105695780636397c371146105d657806370a082311461062d57806372039867146106845780637b27742f146106ed57806381012348146107c4578063a4dc8cc314610830578063a636e39214610871578063a8249684146108c8578063a8d4a03b146108f5578063ab248d4c146109cc578063b693bff814610a39578063bd7ed6e114610a64578063bfb231d214610a91578063c00ae88514610ae0578063c05f227114610b37578063c80da18714610b8e578063e7bf750514610bc5575b600080fd5b34801561017b57600080fd5b506101ba600480360381019080803573ffffffffffffffffffffffffffffffffffffffff16906020019092919080359060200190929190505050610bdc565b005b3480156101c857600080fd5b506101e760048036038101908080359060200190929190505050610d49565b005b610247600480360381019080803573ffffffffffffffffffffffffffffffffffffffff169060200190929190803573ffffffffffffffffffffffffffffffffffffffff16906020019092919080359060200190929190505050610df8565b005b34801561025557600080fd5b5061028a600480360381019080803573ffffffffffffffffffffffffffffffffffffffff169060200190929190505050610f31565b6040518080602001828103825283818151815260200191508051906020019060200280838360005b838110156102cd5780820151818401526020810190506102b2565b505050509050019250505060405180910390f35b3480156102ed57600080fd5b50610320600480360381019080803590602001909291908035906020019092919080359060200190929190505050611063565b005b34801561032e57600080fd5b5061034d60048036038101908080359060200190929190505050611211565b604051808273ffffffffffffffffffffffffffffffffffffffff1673ffffffffffffffffffffffffffffffffffffffff16815260200191505060405180910390f35b34801561039b57600080fd5b506103ba60048036038101908080359060200190929190505050611244565b005b3480156103c857600080fd5b506103e76004803603810190808035906020019092919050505061127a565b6040518080602001878152602001868152602001858152602001848152602001838152602001828103825288818151815260200191508051906020019080838360005b8381101561044557808201518184015260208101905061042a565b50505050905090810190601f1680156104725780820380516001836020036101000a031916815260200191505b5097505050505050505060405180910390f35b34801561049157600080fd5b506104e6600480360381019080803573ffffffffffffffffffffffffffffffffffffffff169060200190929190803573ffffffffffffffffffffffffffffffffffffffff16906020019092919050505061135d565b6040518082815260200191505060405180910390f35b34801561050857600080fd5b5061052760048036038101908080359060200190929190505050611382565b604051808273ffffffffffffffffffffffffffffffffffffffff1673ffffffffffffffffffffffffffffffffffffffff16815260200191505060405180910390f35b34801561057557600080fd5b50610594600480360381019080803590602001909291905050506113b5565b604051808273ffffffffffffffffffffffffffffffffffffffff1673ffffffffffffffffffffffffffffffffffffffff16815260200191505060405180910390f35b3480156105e257600080fd5b50610617600480360381019080803573ffffffffffffffffffffffffffffffffffffffff1690602001909291905050506113f7565b6040518082815260200191505060405180910390f35b34801561063957600080fd5b5061066e600480360381019080803573ffffffffffffffffffffffffffffffffffffffff16906020019092919050505061149a565b6040518082815260200191505060405180910390f35b34801561069057600080fd5b506106eb600480360381019080803590602001908201803590602001908080601f01602080910402602001604051908101604052809392919081815260200183838082843782019150505050505091929192905050506114e3565b005b3480156106f957600080fd5b5061071860048036038101908080359060200190929190505050611754565b604051808060200189815260200188815260200187815260200186815260200185815260200184815260200183815260200182810382528a818151815260200191508051906020019080838360005b83811015610782578082015181840152602081019050610767565b50505050905090810190601f1680156107af5780820380516001836020036101000a031916815260200191505b50995050505050505050505060405180910390f35b3480156107d057600080fd5b506107d961185d565b6040518080602001828103825283818151815260200191508051906020019060200280838360005b8381101561081c578082015181840152602081019050610801565b505050509050019250505060405180910390f35b34801561083c57600080fd5b5061085b6004803603810190808035906020019092919050505061198b565b6040518082815260200191505060405180910390f35b34801561087d57600080fd5b506108b2600480360381019080803573ffffffffffffffffffffffffffffffffffffffff169060200190929190505050611a8f565b6040518082815260200191505060405180910390f35b3480156108d457600080fd5b506108f360048036038101908080359060200190929190505050611b30565b005b34801561090157600080fd5b5061092060048036038101908080359060200190929190505050611c8c565b604051808060200189815260200188815260200187815260200186815260200185815260200184815260200183815260200182810382528a818151815260200191508051906020019080838360005b8381101561098a57808201518184015260208101905061096f565b50505050905090810190601f1680156109b75780820380516001836020036101000a031916815260200191505b50995050505050505050505060405180910390f35b3480156109d857600080fd5b506109f760048036038101908080359060200190929190505050611d7b565b604051808273ffffffffffffffffffffffffffffffffffffffff1673ffffffffffffffffffffffffffffffffffffffff16815260200191505060405180910390f35b348015610a4557600080fd5b50610a4e611dae565b6040518082815260200191505060405180910390f35b348015610a7057600080fd5b50610a8f60048036038101908080359060200190929190505050611db4565b005b348015610a9d57600080fd5b50610abc60048036038101908080359060200190929190505050611f10565b60405180848152602001838152602001828152602001935050505060405180910390f35b348015610aec57600080fd5b50610b21600480360381019080803573ffffffffffffffffffffffffffffffffffffffff169060200190929190505050611f49565b6040518082815260200191505060405180910390f35b348015610b4357600080fd5b50610b78600480360381019080803573ffffffffffffffffffffffffffffffffffffffff169060200190929190505050611f61565b6040518082815260200191505060405180910390f35b348015610b9a57600080fd5b50610bc36004803603810190808035906020019092919080359060200190929190505050611f79565b005b348015610bd157600080fd5b50610bda6120b8565b005b6000610be7826113b5565b90508073ffffffffffffffffffffffffffffffffffffffff163373ffffffffffffffffffffffffffffffffffffffff16141515610c2357600080fd5b8273ffffffffffffffffffffffffffffffffffffffff163373ffffffffffffffffffffffffffffffffffffffff1614151515610c5e57600080fd5b81600960003373ffffffffffffffffffffffffffffffffffffffff1673ffffffffffffffffffffffffffffffffffffffff16815260200190815260200160002060008573ffffffffffffffffffffffffffffffffffffffff1673ffffffffffffffffffffffffffffffffffffffff168152602001908152602001600020819055508273ffffffffffffffffffffffffffffffffffffffff163373ffffffffffffffffffffffffffffffffffffffff167f8c5be1e5ebec7d5bd14f71427d1e84f3dd0314c0f7b2291e5b200ac8c7c3b925846040518082815260200191505060405180910390a3505050565b60006004600083815260200190815260200160002060009054906101000a900473ffffffffffffffffffffffffffffffffffffffff1673ffffffffffffffffffffffffffffffffffffffff163373ffffffffffffffffffffffffffffffffffffffff16141515610db857600080fd5b600382815481101515610dc757fe5b9060005260206000209060030201905060018160010154141515610dea57600080fd5b600081600101819055505050565b600080600383815481101515610e0a57fe5b90600052602060002090600302019150816002015490508034111515610e2f57600080fd5b8373ffffffffffffffffffffffffffffffffffffffff168573ffffffffffffffffffffffffffffffffffffffff1614151515610e6a57600080fd5b60018260010154141515610e7d57600080fd5b8473ffffffffffffffffffffffffffffffffffffffff166108fc349081150290604051600060405180830381858888f19350505050158015610ec3573d6000803e3d6000fd5b50828473ffffffffffffffffffffffffffffffffffffffff168673ffffffffffffffffffffffffffffffffffffffff167fddf252ad1be2c89b69c2b068fc378daa952ba7f163c4a11628f55a4df523b3ef60405160405180910390a4610f2a8585856121dc565b5050505050565b606080600080600760008673ffffffffffffffffffffffffffffffffffffffff1673ffffffffffffffffffffffffffffffffffffffff16815260200190815260200160002054604051908082528060200260200182016040528015610fa55781602001602082028038833980820191505090505b50925060009150600090505b600380549050811015611058578473ffffffffffffffffffffffffffffffffffffffff166004600083815260200190815260200160002060009054906101000a900473ffffffffffffffffffffffffffffffffffffffff1673ffffffffffffffffffffffffffffffffffffffff16141561104b5780838381518110151561103457fe5b906020019060200201818152505081806001019250505b8080600101915050610fb1565b829350505050919050565b60008060008060018781548110151561107857fe5b9060005260206000209060080201935060028681548110151561109757fe5b906000526020600020906006020192506000915060056110ba84600401546122db565b01905060008514156110d95760056110d585600401546122db565b0191505b81836001015403836001018190555060008360010154131561110957808460010154038460010181905550611117565b836001015484600101819055505b8184600701819055508083600501819055506000846001015413151561114c5783600601600081548092919060010191905055505b600083600101541315801561116657506001846001015412155b156112085783600501600081548092919060010191905055508260030154846003016000828254019250508190555060006111a160646122db565b13156111b0576111af6120b8565b5b8360020154600202600a0184600301541215156112075783600201600081548092919060010191905055506000846003018190555083600201546000540284600101819055508360020154600a0284600401819055505b5b50505050505050565b60056020528060005260406000206000915054906101000a900473ffffffffffffffffffffffffffffffffffffffff1681565b600060018281548110151561125557fe5b9060005260206000209060080201905080600201546000540281600101819055505050565b60028181548110151561128957fe5b9060005260206000209060060201600091509050806000018054600181600116156101000203166002900480601f0160208091040260200160405190810160405280929190818152602001828054600181600116156101000203166002900480156113355780601f1061130a57610100808354040283529160200191611335565b820191906000526020600020905b81548152906001019060200180831161131857829003601f168201915b5050505050908060010154908060020154908060030154908060040154908060050154905086565b6009602052816000526040600020602052806000526040600020600091509150505481565b60086020528060005260406000206000915054906101000a900473ffffffffffffffffffffffffffffffffffffffff1681565b6000806004600084815260200190815260200160002060009054906101000a900473ffffffffffffffffffffffffffffffffffffffff16905080915050919050565b6000806000620f423f9150600090505b600180549050811015611490578373ffffffffffffffffffffffffffffffffffffffff166005600083815260200190815260200160002060009054906101000a900473ffffffffffffffffffffffffffffffffffffffff1673ffffffffffffffffffffffffffffffffffffffff16141561148357809150611490565b8080600101915050611407565b8192505050919050565b6000600760008373ffffffffffffffffffffffffffffffffffffffff1673ffffffffffffffffffffffffffffffffffffffff168152602001908152602001600020549050919050565b600080600660003373ffffffffffffffffffffffffffffffffffffffff1673ffffffffffffffffffffffffffffffffffffffff1681526020019081526020016000205414151561153257600080fd5b6001806101006040519081016040528085815260200160005481526020016001815260200160008152602001600a8152602001600081526020016000815260200160008152509080600181540180825580915050906001820390600052602060002090600802016000909192909190915060008201518160000190805190602001906115bf929190612409565b506020820151816001015560408201518160020155606082015181600301556080820151816004015560a0820151816005015560c0820151816006015560e082015181600701555050039050336005600083815260200190815260200160002060006101000a81548173ffffffffffffffffffffffffffffffffffffffff021916908373ffffffffffffffffffffffffffffffffffffffff160217905550600660003373ffffffffffffffffffffffffffffffffffffffff1673ffffffffffffffffffffffffffffffffffffffff168152602001908152602001600020600081548092919060010191905055507fc5f9e8f2260357126c499e740b83112ad235cbba0d89b41f0a43d6bd9e98ef4e81836040518083815260200180602001828103825283818151815260200191508051906020019080838360005b838110156117155780820151818401526020810190506116fa565b50505050905090810190601f1680156117425780820380516001836020036101000a031916815260200191505b50935050505060405180910390a15050565b606060008060008060008060008060018a81548110151561177157fe5b90600052602060002090600802019050806000018054600181600116156101000203166002900480601f0160208091040260200160405190810160405280929190818152602001828054600181600116156101000203166002900480156118195780601f106117ee57610100808354040283529160200191611819565b820191906000526020600020905b8154815290600101906020018083116117fc57829003601f168201915b505050505098508060010154975080600201549650806003015495508060040154945080600501549350806006015492508060070154915050919395975091939597565b60608060006060600060076003805490501015611900576003805490506040519080825280602002602001820160405280156118a85781602001602082028038833980820191505090505b509350600092505b60078310156118f8576003805490508314156118ce57839450611984565b8284848151811015156118dd57fe5b906020019060200201818152505082806001019350506118b0565b839450611984565b60076040519080825280602002602001820160405280156119305781602001602082028038833980820191505090505b509150600090505b60078110156119805760038054905081141561195657819450611984565b80828281518110151561196557fe5b90602001906020020181815250508080600101915050611938565b8194505b5050505090565b6000806000834233600b54604051602001808481526020018373ffffffffffffffffffffffffffffffffffffffff1673ffffffffffffffffffffffffffffffffffffffff166c0100000000000000000000000002815260140182815260200193505050506040516020818303038152906040526040518082805190602001908083835b602083101515611a335780518252602082019150602081019050602083039250611a0e565b6001836020036101000a038019825116818451168082178552505050505050905001915050604051809103902060019004811515611a6d57fe5b069150600b600081548092919060010191905055508190508092505050919050565b600080600080915060028054905090505b6000811115611b26578373ffffffffffffffffffffffffffffffffffffffff166008600083815260200190815260200160002060009054906101000a900473ffffffffffffffffffffffffffffffffffffffff1673ffffffffffffffffffffffffffffffffffffffff161415611b1857809150611b26565b808060019003915050611aa0565b8192505050919050565b60006001600260c0604051908101604052806040805190810160405280600a81526020017f536d616c6c206372616200000000000000000000000000000000000000000000815250815260200185600f02815260200185815260200185600702815260200185860260050281526020016000815250908060018154018082558091505090600182039060005260206000209060060201600090919290919091506000820151816000019080519060200190611bec929190612409565b506020820151816001015560408201518160020155606082015181600301556080820151816004015560a082015181600501555050039050336008600083815260200190815260200160002060006101000a81548173ffffffffffffffffffffffffffffffffffffffff021916908373ffffffffffffffffffffffffffffffffffffffff160217905550600a600081548092919060010191905055505050565b600181815481101515611c9b57fe5b9060005260206000209060080201600091509050806000018054600181600116156101000203166002900480601f016020809104026020016040519081016040528092919081815260200182805460018160011615610100020316600290048015611d475780601f10611d1c57610100808354040283529160200191611d47565b820191906000526020600020905b815481529060010190602001808311611d2a57829003601f168201915b5050505050908060010154908060020154908060030154908060040154908060050154908060060154908060070154905088565b60046020528060005260406000206000915054906101000a900473ffffffffffffffffffffffffffffffffffffffff1681565b600a5481565b60006001600260c0604051908101604052806040805190810160405280600881526020017f4269672063726162000000000000000000000000000000000000000000000000815250815260200185601402815260200185815260200185600e02815260200185860260050281526020016000815250908060018154018082558091505090600182039060005260206000209060060201600090919290919091506000820151816000019080519060200190611e70929190612409565b506020820151816001015560408201518160020155606082015181600301556080820151816004015560a082015181600501555050039050336008600083815260200190815260200160002060006101000a81548173ffffffffffffffffffffffffffffffffffffffff021916908373ffffffffffffffffffffffffffffffffffffffff160217905550600a600081548092919060010191905055505050565b600381815481101515611f1f57fe5b90600052602060002090600302016000915090508060000154908060010154908060020154905083565b60076020528060005260406000206000915090505481565b60066020528060005260406000206000915090505481565b6000600383815481101515611f8a57fe5b906000526020600020906003020190506004600084815260200190815260200160002060009054906101000a900473ffffffffffffffffffffffffffffffffffffffff1673ffffffffffffffffffffffffffffffffffffffff163373ffffffffffffffffffffffffffffffffffffffff1614806120825750600960003373ffffffffffffffffffffffffffffffffffffffff1673ffffffffffffffffffffffffffffffffffffffff16815260200190815260200160002060003373ffffffffffffffffffffffffffffffffffffffff1673ffffffffffffffffffffffffffffffffffffffff1681526020019081526020016000205483145b151561208d57600080fd5b600081600101541415156120a057600080fd5b81816002018190555060018160010181905550505050565b6000806120c560036122db565b915060016003606060405190810160405280858152602001600081526020016000815250908060018154018082558091505090600182039060005260206000209060030201600090919290919091506000820151816000015560208201518160010155604082015181600201555050039050336004600083815260200190815260200160002060006101000a81548173ffffffffffffffffffffffffffffffffffffffff021916908373ffffffffffffffffffffffffffffffffffffffff160217905550600760003373ffffffffffffffffffffffffffffffffffffffff1673ffffffffffffffffffffffffffffffffffffffff168152602001908152602001600020600081548092919060010191905055505050565b600760008373ffffffffffffffffffffffffffffffffffffffff1673ffffffffffffffffffffffffffffffffffffffff16815260200190815260200160002060008154809291906001019190505550600760008473ffffffffffffffffffffffffffffffffffffffff1673ffffffffffffffffffffffffffffffffffffffff1681526020019081526020016000206000815480929190600190039190505550816004600083815260200190815260200160002060006101000a81548173ffffffffffffffffffffffffffffffffffffffff021916908373ffffffffffffffffffffffffffffffffffffffff1602179055506122d681610d49565b505050565b600080824233600b54604051602001808481526020018373ffffffffffffffffffffffffffffffffffffffff1673ffffffffffffffffffffffffffffffffffffffff166c0100000000000000000000000002815260140182815260200193505050506040516020818303038152906040526040518082805190602001908083835b602083101515612381578051825260208201915060208101905060208303925061235c565b6001836020036101000a0380198251168184511680821785525050505050509050019150506040518091039020600190048115156123bb57fe5b0790506000811315156123ee57807fffffffffffffffffffffffffffffffffffffffffffffffffffffffffffffffff0290505b600b6000815480929190600101919050555080915050919050565b828054600181600116156101000203166002900490600052602060002090601f016020900481019282601f1061244a57805160ff1916838001178555612478565b82800160010185558215612478579182015b8281111561247757825182559160200191906001019061245c565b5b5090506124859190612489565b5090565b6124ab91905b808211156124a757600081600090555060010161248f565b5090565b905600a165627a7a72305820f2fb02bd281f2a227c83dbcc7f47e2ace03919ba5bbe39569ec7c76611358cd90029",
  "source": "    pragma solidity ^0.4.25;\n    \n   import \"./ERC721.sol\";\n    contract Creation  {\n     event Transfer(address indexed _from, address indexed _to, uint256 indexed _tokenId);\n        \n        int basiclife=20;\n\n        event NewHero(uint heroId, string name);\n\n        struct hero  { // ta periexomena enos hrwa\n            string name;\n            int life;\n            int lvl;\n            int xp;\n            int attack;\n            int winCount;\n            int lossCount;\n            int herodmg;\n        }\n        hero[] public heroes; \n\n        struct enemy {  // ta periexomena enos TERATOS\n            string name;\n            int life;\n            int lvl;\n            int xp;\n            int attack;\n            int mondmg;\n        }\n        enemy[] public enemies;\n\n        struct item  { \n            int uid;\n            int sellable;\n            uint price;\n        }\n        item[] public items;\n\n      mapping (uint => address) public itemtoowner;    \n      mapping (uint => address) public herotoowner;\n      mapping (address => uint) public  heroCount;\n      mapping (address => uint) public  itemCount;\n      mapping (uint => address) public monstertoowner;\n      mapping(address => mapping (address => uint256)) public allowed;\n      uint public monsterCount; \n        \n        function createhero(string memory _name) public  {              //function to create a hero\n         require(heroCount[msg.sender] == 0);                           //user can create a hero only if he hasen't one\n           uint id= heroes.push(hero(_name,basiclife,1,0,10,0,0,0))-1;  //add hero in the array of heroes \n           herotoowner[id] = msg.sender;                                //maps the id with the address of the user that created him \n           heroCount[msg.sender]++;                                     //\n           emit NewHero(id, _name);\n        }\n         function enemyScrab(int _herolvl) public  { \n           uint id=enemies.push(enemy(\"Small crab\",15*_herolvl,_herolvl,7*_herolvl,5*(_herolvl*_herolvl),0))-1;\n           monstertoowner[id] = msg.sender;\n           monsterCount++; \n        }\n        function enemyBcrab(int _herolvl) public  {\n           uint id=enemies.push(enemy(\"Big crab\",20*_herolvl,_herolvl,14*_herolvl,5*(_herolvl*_herolvl),0))-1; \n           monstertoowner[id] = msg.sender;\n           monsterCount++;\n        }\n\n          function createitem() public  { \n          int ran = randNum(3);\n              uint id1=items.push(item(ran,0,0 ether))-1; \n           itemtoowner[id1] = msg.sender;\n           itemCount[msg.sender]++;\n          }\n           \n           function getitemsByOwner(address _owner) external view returns( uint[] memory ) { //sinartisi gia euresi id kai emfanisi tou hrwa\n             uint[] memory result = new uint[](itemCount[_owner]);\n            uint counter = 0;\n            for (uint i = 0; i < items.length; i++) {\n            if (itemtoowner[i] == _owner) {\n              result[counter] = i;\n              counter++;\n                   }\n                  }\n                return result;\n              }\n              function tosell(uint _itemid,uint _price) public{\n                  item storage myitem = items[_itemid];\n                require(msg.sender == itemtoowner[_itemid] || _itemid == allowed[msg.sender][msg.sender]);\n                require(myitem.sellable ==0);\n                  myitem.price= _price;\n                  myitem.sellable = 1;\n              }\n                function cancelsell(uint _itemid) public{\n                require(msg.sender == itemtoowner[_itemid]);\n                  item storage myitem = items[_itemid];\n                   require(myitem.sellable ==1);\n                  myitem.sellable = 0;\n              }\n               function buyit(address _from, address _to,uint _tokenId) private{\n                  itemCount[_to]++;\n                  itemCount[_from]--;\n                  itemtoowner[_tokenId] = _to;\n                  cancelsell(_tokenId);\n              }\n               function transferFrom(address _from, address _to, uint256 _tokenId) external payable{\n                    item storage myitem = items[_tokenId];\n                    uint priceof = myitem.price; \n                  require(msg.value > priceof );\n                  require(_from != _to);\n                  require(myitem.sellable ==1);\n                  _from.transfer(msg.value);\n                   Transfer(_from, _to, _tokenId);\n                  buyit( _from,  _to, _tokenId);\n               }\n            function retarrray() external view returns (uint[] memory) {\n                if (items.length <7 ){\n                     uint[] memory result = new uint[](items.length);\n                     for (uint i = 0; i < 7; i++) {\n                  if (i ==items.length){\n                    return result; \n                  }\n                  result[i] = i;\n                }\n                 return result;\n                } else {\n                     uint[] memory result2 = new uint[](7);\n                     for (uint j = 0; j < 7; j++) {\n                  if (j ==items.length){\n                    return result2;\n                  }\n                  result2[j] = j;\n                }\n                 return result2;\n                } \n            }\n           function getHerosByOwner(address owner) external view returns( uint ) { //sinartisi gia euresi id kai emfanisi tou hrwa\n            uint result =999999;\n            for (uint i = 0; i < heroes.length; i++) {\n                  if (herotoowner[i] == owner) {\n                    result = i;\n                    break;\n                    }\n                    }\n            return result;\n            }\n            function getmonstersByOwner(address owner) external view returns( uint ) { //sinartisi gia euresi id kai emfanisi tou teratos\n            uint result =0;\n            for (uint i = enemies.length ; i > 0 ; i--) {\n                  if (monstertoowner[i] == owner) {\n                    result = i;\n                    break;\n              }\n            }\n            return result;\n            }\n            \n            uint nonce=0;\n       \n       function randNum(int _num) private   returns(int) {  //sinartisi gia tixaies times\n        int randomnumber = int(keccak256(abi.encodePacked(now, msg.sender, nonce))) % _num;\n        if (randomnumber <=0) {\n            randomnumber=(-1)*randomnumber;\n        }\n        nonce++;\n        return randomnumber;\n        }  \n          function randNum2(uint _num) external  view returns(uint) {  //sinartisi gia tixaies times\n        uint randomnumber = uint(keccak256(abi.encodePacked(now, msg.sender, nonce))) % _num;\n        \n        nonce++;\n        uint result = randomnumber;\n        return result;\n        }  \n\n\n        function attack_hero(uint _heroid, uint _monsterid, int _num  ) external  { \n          \n          hero storage myhero = heroes[_heroid];\n          enemy storage monster = enemies[_monsterid];\n          int attackofhero=0;\n          \n\t\t      int attackofmonster=randNum(monster.attack) + 5;\n          if(_num==0 ) { \n           attackofhero=randNum(myhero.attack) +5;\n          }\n         \n            monster.life=monster.life - attackofhero;\n          \n          if(monster.life>0){\n            myhero.life=myhero.life - attackofmonster;\n          }else{\n            myhero.life=myhero.life;\n          }\n          myhero.herodmg=attackofhero;\n          monster.mondmg=attackofmonster;\n\t\t  \n\t\t      if (myhero.life <= 0 ) { \n           myhero.lossCount++; \n          }\n          if (monster.life <= 0 && myhero.life >= 1) { \n            myhero.winCount++;\n            myhero.xp+=monster.xp;\n            if (randNum(100) > 0 ){ \n                   createitem();\n            }\n            if (myhero.xp>=10+2*myhero.lvl){ \n              myhero.lvl++;\n              myhero.xp=0; \n              myhero.life=basiclife*myhero.lvl; \n              myhero.attack=10*myhero.lvl;\n            }\n         }\n        }\n        function resurrection(uint _heroid) public { \n             hero storage myhero = heroes[_heroid];\n             myhero.life=basiclife*myhero.lvl;\n        }\n        \n          \n                function gethero(uint256 _id) external view returns (\n            string name,\n            int life,\n            int lvl,\n            int xp,\n            int attack,\n            int winCount,\n            int lossCount,\n            int herodmg\n            ){\n              hero storage kit = heroes[_id];\n              name = string(kit.name);\n              life = int(kit.life);\n              lvl = int(kit.lvl);\n              xp = int(kit.xp);\n              attack = int(kit.attack);\n              winCount = int(kit.winCount);\n              lossCount = int(kit.lossCount);\n              herodmg = int(kit.herodmg);\n              \n            }  \n                  event Approval(address indexed _owner, address indexed _approved, uint256 _tokenId); \n                  \n                function balanceOf(address _owner)  returns (uint256) {\n                return itemCount[_owner];\n                }\n                function ownerOf(uint256 _tokenId)  returns (address) {\n                    address owner = itemtoowner[_tokenId];\n                 return owner;\n                }\n                function approve(address _to, uint256 _tokenId){\n                address owner = ownerOf(_tokenId);\n                require(msg.sender == owner );\n                 require(msg.sender != _to);\n                allowed[msg.sender][_to] = _tokenId;\n                Approval(msg.sender, _to, _tokenId);\n                }\n    }             \n          ",
  "sourcePath": "C:\\Users\\Administrator\\DApp\\contracts\\Creation.sol",
  "compiler": {
    "name": "solc",
    "version": "0.4.25+commit.59dbf8f1.Emscripten.clang"
  },
  "schemaVersion": "3.4.16",
  "updatedAt": "2025-02-26T22:01:16.254Z",
  "networkType": "ethereum",
  "devdoc": {
    "methods": {}
  },
  "userdoc": {
    "methods": {}
  }
}